:100000000C946B010C948C010C948C010C948C015D
:100010000C948C010C948C010C948C010C948C012C
:100020000C948C010C948C010C948C010C948C011C
:100030000C948C010C948C010C948C010C948C010C
:100040000C948C010C948C010C948C010C948C01FC
:100050000C948C010C948C010C948C010C948C01EC
:100060000C948C010C948C010C948C010C948C01DC
:100070000C948C010C948C010C948C010C948C01CC
:100080000C948C010C948C010C948C010C948C01BC
:100090000C948C010C948C010C948C010C948C01AC
:1000A0000C948C010C948C010C948C010C948C019C
:1000B0000C948C010C948C010C948C010C948C018C
:1000C0000C948C010C948C010C948C010C948C017C
:1000D0000C948C010C948C010C948C010C948C016C
:1000E0000C948C010C948C010C948C010C948C015C
:1000F0000C948C010C948C010C948C010C948C014C
:100100000C948C010C948C010C948C010C948C013B
:100110000C948C010C948C010C948C010C948C012B
:100120000C948C010C948C010C948C010C948C011B
:100130000C948C010C948C010C948C010C948C010B
:100140000C948C010C948C010C948C010C948C01FB
:100150000C948C010C948C010C948C010C948C01EB
:100160000C948C010C948C010C948C010C948C01DB
:100170000C948C010C948C010C948C010C948C01CB
:100180000C948C010C948C010C948C010C948C01BB
:100190000C948C010C948C010C948C010C948C01AB
:1001A0000C948C010C948C010C948C010C948C019B
:1001B0000C948C010C948C010C948C010C948C018B
:1001C0000C948C010C948C010C94DD010102040848
:1001D000102040801B36637C777BF26B6FC530014B
:1001E000672BFED7AB76CA82C97DFA5947F0ADD4EA
:1001F000A2AF9CA472C0B7FD9326363FF7CC34A5BE
:10020000E5F171D8311504C723C31896059A071272
:1002100080E2EB27B27509832C1A1B6E5AA0523B61
:10022000D6B329E32F8453D100ED20FCB15B6ACB18
:10023000BE394A4C58CFD0EFAAFB434D338545F920
:10024000027F503C9FA851A3408F929D38F5BCB6C9
:10025000DA2110FFF3D2CD0C13EC5F974417C4A73B
:100260007E3D645D197360814FDC222A908846EEE2
:10027000B814DE5E0BDBE0323A0A4906245CC2D3D6
:10028000AC629195E479E7C8376D8DD54EA96C566F
:10029000F4EA657AAE08BA78252E1CA6B4C6E8DD65
:1002A000741F4BBD8B8A703EB5664803F60E6135F0
:1002B00057B986C11D9EE1F8981169D98E949B1E8D
:1002C00087E9CE5528DF8CA1890DBFE642684199A8
:1002D0002D0FB054BB1611241FBECFEFCDBFDFE3EF
:1002E000DEBF00E00CBF11E2A0E0B0E2E0EAFEE019
:1002F00000E00BBF02C007900D92A233B107D9F7FF
:1003000022E2A2E3B1E201C01D92A63EB207E1F7EC
:100310000E940E060C944E070C940000CF93DF93BE
:100320001F921F92CDB7DEB719821A8289819A81F6
:10033000019631F089819A81019689839A83F6CF5B
:100340000F900F90DF91CF910895CF93DF93EC0141
:1003500089910E94400388818111FACFDF91CF916A
:100360000895CF92DF92EF92FF920F931F93CF9356
:10037000DF937C01EB018C01C8018E199F098C175A
:100380009D0774F468010E943903F8018083882373
:10039000D1F30F5F1F4F8A3079F7F601108204C046
:1003A000CE0DDF1D21971882DF91CF911F910F9104
:1003B000FF90EF90DF90CF90089580E00895DB01EB
:1003C000FA019F01241B350B28173907D4F52C910E
:1003D00011963C91119760ED630F6A3010F46083C1
:1003E0000FC06FEB630F663010F4375308C06FE92E
:1003F000630F663018F081E090E008953755308340
:1004000030ED320F3A3018F42295207F14C03FEBC4
:10041000320F363020F430E02753310907C03FE96E
:10042000320F363040F730E02755310964E0220FB3
:10043000331F6A95E1F73081232B20833196129682
:10044000C0CF80E090E00895209132213091332197
:100450002A303105CCF460347105B0F495E0929FF8
:10046000F001939FF00D1124EC5CFE4D80836183BD
:100470007283438354832F5F3F4F20933221309305
:10048000332180E090E0089581E090E008954DED03
:1004900051E060E070E086E70C942402AF92BF92D6
:1004A000CF92DF92EF92FF920F931F93CF93DF9340
:1004B000CDB7DEB7C05CD109CDBFDEBF0E94390326
:1004C000409132215091332124E331E200E010E0E9
:1004D0000417150754F42B5F3F4FF90135979081AE
:1004E000891739F00F5F1F4FF3CF0417150709F471
:1004F00047C09E012F5F3F4F7901690125E0209F92
:10050000C001219F900D1124DC01AB5CBE4D5D014B
:10051000D5018D919C91880F991F96012E193F0945
:100520002817390750F40E9439038A3049F18D3079
:1005300039F1F60181936F01EBCF0E9439038A30C4
:1005400011F08D30E9F425E0209FC001219F900D2E
:1005500011248C010C5C1E4DAE014F575F4FB7014B
:10056000F801818192810E94DF01892B49F4D80131
:100570001396ED91FC911497CE018F579F4F1995CB
:10058000C054DF4FCDBFDEBFDF91CF911F910F91E0
:10059000FF90EF90DF90CF90BF90AF900895CF92F3
:1005A000DF92EF92FF920F931F93CF93DF938B0114
:1005B000EA010E9440037E01C7018C1B9D0B80173E
:1005C0009107B4F46701D701ED917D01E295EF70D9
:1005D000F0E0EC5FFF4D80810E944003D601EC917A
:1005E000EF70F0E0EC5FFF4D80810E944003E4CFAC
:1005F0008AE0DF91CF911F910F91FF90EF90DF90F4
:10060000CF900C944003E0E4F6E088E0818384E03E
:100610008283E0EAF8E083E085838BE086831782BB
:100620008481806184838481886084830895CF93EA
:10063000DF931F921F92CDB7DEB769837A8320E0E4
:1006400030E049815A812417350769F04091A108AB
:1006500047FF06C02091A008FC01208381E004C070
:100660002F5F3F4FEECF80E00F900F90DF91CF9143
:1006700008958091A10887FFFCCF8091A00808957C
:100680009091A10895FFFCCF8093A0080895FC01EC
:1006900060837183428314861386168615860895B7
:1006A000FC0162830895FC01958526859F5F937008
:1006B00081E0921301C080E008951F93CF93DF93F0
:1006C000EC01162F0E945303882379F09D85FE01CB
:1006D000E90FF11D17839F5F93709D87E881F98172
:1006E00093819C7F2A81922B9383DF91CF911F91DD
:1006F0000895FC012385948581E0291301C080E0E1
:100700000895FC018485DF01A80FB11D13968C911B
:1007100094859F5F937094870895FC0183858F5F14
:1007200083702485A081B1819C91821749F0238533
:10073000DF01A20FB11D13969C93838781E008957A
:1007400080E00895CF93DF93FC0196858585A08195
:10075000B181981307C013968C9113978C7F1396D1
:100760008C930AC08685EF01C80FD11D8F818C93B1
:1007700086858F5F83708687DF91CF910895FC0116
:10078000848170FF02C0816001C08E7F848360839A
:100790000895FC01848180FF04C0808190E0916015
:1007A0000895808190E008951092520010925500B3
:1007B000809150008860809350008091510083FFA9
:1007C000FCCF88ED84BF83E08093400088E0809375
:1007D000500080E6809301068093050608950895F1
:1007E00066E372E20C94EF0566E372E20C94FE0598
:1007F0000895CF93DF9300D01F92CDB7DEB7DC0111
:100800008C91898314968C9114978A8318968C9175
:1008100018978B831C968C911C978C83862F8370E2
:10082000E1E0F0E0EC0FFD1FE80FF11D80818C93FB
:1008300070E0FB013196E370FF2781E090E08C0FC0
:100840009D1FE80FF91F808114968C931497FB016C
:100850003296E370FF2781E090E08C0F9D1FE80F38
:10086000F91F808118968C931897FB013396E370DB
:10087000FF2781E090E08C0F9D1FE80FF91F80811A
:100880001C968C932496CDBFDEBFDF91CF91089547
:100890002F923F924F925F926F927F928F929F9290
:1008A000AF92BF92CF92DF92EF92FF920F931F937E
:1008B000CF93DF93CDB7DEB76397CDBFDEBF7C01AB
:1008C0005B01242EDB018A8B9B8B2C0120E1420EE5
:1008D000511CFC018D91908189278193E415F505C8
:1008E000C9F7450130E1830E911C81E0898B3E01FF
:1008F000A1E16A0E711C21E0221508F081C08E0171
:100900000F5F1F4FD801C701FC012191CF01E22FDA
:10091000F0E0EA52FE4FE491ED93A615B705A1F77A
:1009200061E0CE0102960E94F90362E0CE010396D7
:100930000E94F90363E0CE0104960E94F903670167
:10094000D8016C9111968C911197682712963C9062
:10095000129713968C91382636264BE182E00E943E
:100960000106F801908189278325D6018C93618146
:10097000828168274BE182E00E940106F8019181A3
:1009800089278325D60111968C93628183816827FC
:100990004BE182E00E940106F801928189278325BC
:1009A000D60112968C936381808168274BE182E0A7
:1009B0000E940106F801938189273826D6011396F3
:1009C0003C920C5F1F4FB4E0CB0ED11C06151705EF
:1009D00009F0B6CFF70180E090E0D401A80FB91F6D
:1009E00030812C9123272193019680319105A9F71D
:1009F000E989EF5FE98B2A94F0E18F0E911C7BCFA0
:100A0000D701EC91F0E0EA52FE4FE491ED93A4158A
:100A1000B505B9F761E0C70101960E94F90362E0EC
:100A2000C70102960E94F90363E0C70103960E9482
:100A3000F903A98930E1A39FC001112420E030E02F
:100A4000FC01E20FF31FEA0DFB1DAA89BB895C9133
:100A5000408145274D93AA8BBB8B2F5F3F4F2031A1
:100A6000310571F76396CDBFDEBFDF91CF911F9146
:100A70000F91FF90EF90DF90CF90BF90AF909F903D
:100A80008F907F906F905F904F903F902F90089540
:100A90008F929F92AF92BF92CF92DF92EF92FF928E
:100AA0000F931F93CF93DF93EA016B01F5E0D69488
:100AB000C794FA95E1F7EC2C860111279801295F7C
:100AC0003F4FF22EFF0CFF0CAB01A3E0569547956C
:100AD000AA95E1F7BC01CE010E94E206DC2C2C2D88
:100AE00030E02F1508F06EC0622F70E0AB0141506E
:100AF000504C440F551F440F551F4C0F5D1FFA01FA
:100B000080819181A281B3812D1509F1F8E0EF1266
:100B100041C0E22FE770E43009F03CC0E82FF0E07C
:100B2000EA52FE4FE4918E2FE92FF0E0EA52FE4F99
:100B3000E4919E2FEA2FF0E0EA52FE4FE491AE2FAF
:100B4000EB2FF0E0EA52FE4FE491BE2F23C0D22EED
:100B5000DE0CC82EAB2EE92FF0E0EA52FE4FB49027
:100B6000EA2FF0E0EA52FE4FE4919E2FEA2DF0E0EA
:100B7000EA52FE4FE491AE2FEC2DF0E0EA52FE4F28
:100B8000E491BE2FE32FF0E0E453FE4FE4918B2D70
:100B90008E273F5FFB01E01BF10BEE0FFF1FEE0FF7
:100BA000FF1FEC0FFD1F80809180A280B3808825FD
:100BB0009925AA25BB25FA0184839583A683B7834B
:100BC0002F5F8FCFDF91CF911F910F91FF90EF900B
:100BD000DF90CF90BF90AF909F908F900895AB0122
:100BE00060E870E00C944805AB0160EC70E00C9498
:100BF0004805AB0160E071E00C9448054AE00C94B4
:100C00004804782F8827769531F008F48627660FF8
:100C100008F46427F8CF08F486270895CF93DF936C
:100C2000CDB7DEB7AA97CDBFDEBF0E94D4030E9426
:100C3000030311E01093010688E0EAE2F1E2DE012D
:100C4000919601900D928A95E1F784E190E20E94DD
:100C5000A50187E390E20E94A5010E948E0184E530
:100C600090E20E94A5010E948E0181E790E20E941D
:100C7000A5010E948E018EE890E20E94A5010E94CB
:100C80008E018BEA90E20E94A5018EEA90E20E941A
:100C9000A501109306068DED90E20E94A50160E289
:100CA00070E0CE0101960E94B10110930506DE01AD
:100CB0009196FE013196CE0189963D912191321394
:100CC0000BC0A817B907C9F780E191E20E94A501FE
:100CD00080E280930606FFCF0E94D30619A61AA6CB
:100CE00029A53AA5281739073CF429A53AA52F5F6D
:100CF0003F4F29A73AA7F4CF0E948E010E948E0190
:100D000081E091E20E94A50180E480930606E3CF92
:100D10008F929F92AF92BF92CF92DF92EF92FF920B
:100D2000CF93DF93EC01688179818A819B81611582
:100D300071058105910521F464E279ED8BE597E079
:100D40002DE133EF41E050E00E94EB0649015A01EA
:100D50009B01AC01A7EAB1E40E940A076B017C0188
:100D6000ACEEB4EFA50194010E941807DC01CB01A1
:100D70008C0D9D1DAE1DBF1DB7FF03C00197A109BE
:100D8000B04888839983AA83BB839F77DF91CF91F3
:100D9000FF90EF90DF90CF90BF90AF909F908F909B
:100DA00008950C94880680E090E20C948806A0E0F8
:100DB000B0E08093002090930120A0930220B09394
:100DC00003200895FB01DC0102C001900D92415007
:100DD0005040D8F70895052E97FB1EF400940E940A
:100DE000020757FD07D00E941D0707FC03D04EF4F1
:100DF0000C94020750954095309521953F4F4F4FE9
:100E00005F4F089590958095709561957F4F8F4FB6
:100E10009F4F08950E943F07A59F900DB49F900D8E
:100E2000A49F800D911D11240895B7FF0C940A070B
:100E30000E940A07821B930B0895A1E21A2EAA1B97
:100E4000BB1BFD010DC0AA1FBB1FEE1FFF1FA2177A
:100E5000B307E407F50720F0A21BB30BE40BF50B77
:100E6000661F771F881F991F1A9469F76095709500
:100E7000809590959B01AC01BD01CF010895A29F83
:100E8000B001B39FC001A39F700D811D1124911D5E
:100E9000B29F700D811D1124911D0895F894FFCF0C
:100EA00001000000303132333435363738394142B1
:100EB000434445462A2A2A2A2A536166652D6F2D06
:100EC0006D61746963203330303020426F6F746914
:100ED0006E672E2E2E0A00416C69676E696E672060
:100EE000626974732E2E2E2E2E2E2E2E5B444F4EA4
:100EF000455D0A00436865636B696E6720436573EF
:100F000069756D20524E472E2E5B444F4E455D0A4B
:100F1000004D6173717565726164696E6720666CFE
:100F20006173682E2E2E5B444F4E455D0A0044656A
:100F30006372797074696E67206461746162617351
:100F4000652E2E5B444F4E455D0A000A0A0057414C
:100F5000524E494E473A20554E415554484F5249FA
:100F60005A4544204143434553532057494C4C2054
:100F700042452050554E49534845440A00506C653F
:100F800061736520656E7465722070617373776F2D
:100F9000726420746F20636F6E74696E75653A2099
:100FA0000050415353574F5244204641494C0A0088
:100FB000416363657373206772616E7465642C208E
:100FC00057656C636F6D65210A00434F5649443184
:020FD0003900E6
:00000001FF
