:100000000C9471010C9492010C9492010C94920145
:100010000C9492010C9492010C9492010C94920114
:100020000C9492010C9492010C9492010C94920104
:100030000C9492010C9492010C9492010C949201F4
:100040000C9492010C9492010C9492010C949201E4
:100050000C9492010C9492010C9492010C949201D4
:100060000C9492010C9492010C9492010C949201C4
:100070000C9492010C9492010C9492010C949201B4
:100080000C9492010C9492010C9492010C949201A4
:100090000C9492010C9492010C9492010C94920194
:1000A0000C9492010C9492010C9492010C94920184
:1000B0000C9492010C9492010C9492010C94920174
:1000C0000C9492010C9492010C9492010C94920164
:1000D0000C9492010C9492010C9492010C94920154
:1000E0000C9492010C9492010C9492010C94920144
:1000F0000C9492010C9492010C9492010C94920134
:100100000C9492010C9492010C9492010C94920123
:100110000C9492010C9492010C9492010C94920113
:100120000C9492010C9492010C9492010C94920103
:100130000C9492010C9492010C9492010C949201F3
:100140000C9492010C9492010C9492010C949201E3
:100150000C9492010C9492010C9492010C949201D3
:100160000C9492010C9492010C9492010C949201C3
:100170000C9492010C9492010C9492010C949201B3
:100180000C9492010C9492010C9492010C949201A3
:100190000C9492010C9492010C9492010C94920193
:1001A0000C9492010C9492010C9492010C94920183
:1001B0000C9492010C9492010C9492010C94920173
:1001C0000C9492010C9492010C94A5010C9494014E
:1001D0000C94A3010C9496010102040810204080A5
:1001E0001B36637C777BF26B6FC53001672BFED7C4
:1001F000AB76CA82C97DFA5947F0ADD4A2AF9CA4B0
:1002000072C0B7FD9326363FF7CC34A5E5F171D81F
:10021000311504C723C31896059A071280E2EB270D
:10022000B27509832C1A1B6E5AA0523BD6B329E330
:100230002F8453D100ED20FCB15B6ACBBE394A4C10
:1002400058CFD0EFAAFB434D338545F9027F503C90
:100250009FA851A3408F929D38F5BCB6DA2110FFBC
:10026000F3D2CD0C13EC5F974417C4A77E3D645DB9
:10027000197360814FDC222A908846EEB814DE5E46
:100280000BDBE0323A0A4906245CC2D3AC6291959A
:10029000E479E7C8376D8DD54EA96C56F4EA657AD6
:1002A000AE08BA78252E1CA6B4C6E8DD741F4BBD77
:1002B0008B8A703EB5664803F60E613557B986C124
:1002C0001D9EE1F8981169D98E949B1E87E9CE5541
:1002D00028DF8CA1890DBFE6426841992D0FB054EB
:1002E000BB1611241FBECFEFCDBFDFE3DEBF00E0A2
:1002F0000CBF10E2A0E0B0E2EEE1FCE000E00BBFDA
:1003000002C007900D92A031B107D9F720E2A0E119
:10031000B0E201C01D92A43FB207E1F70E94E305DD
:100320000C940D060C94000080E00895AC01E0E010
:10033000F6E091E09583968360E170E082E70E94A9
:10034000160280E0089580E0089580E00895DB01C2
:10035000FA019F01241B350B28173907D4F52C917E
:1003600011963C91119760ED630F6A3010F4608331
:100370000FC06FEB630F663010F4375308C06FE99E
:10038000630F663018F081E090E0089537553083B0
:1003900030ED320F3A3018F42295207F14C03FEB35
:1003A000320F363020F430E02753310907C03FE9DF
:1003B000320F363040F730E02755310964E0220F24
:1003C000331F6A95E1F73081232B208331961296F3
:1003D000C0CF80E090E0089520911020309111204E
:1003E0002A303105CCF460347105B0F495E0929F69
:1003F000F001939FF00D1124EE5EFF4D8083618329
:100400007283438354832F5F3F4F20931020309398
:10041000112080E090E0089581E090E0089545EAA1
:1004200051E060E070E086E70C94EC01CF92DF923F
:10043000EF92FF920F931F93CF93DF938B01EA010B
:100440000E9415037E01C7018C1B9D0B801791072D
:10045000B4F46701D701ED917D01E295EF70F0E012
:10046000E050F04E80810E941503D601EC91EF70B0
:10047000F0E0E050F04E80810E941503E4CF8AE066
:10048000DF91CF911F910F91FF90EF90DF90CF9070
:100490000C941503AF92BF92CF92DF92EF92FF922E
:1004A0000F931F93CF93DF93CDB7DEB7C15CD10914
:1004B000CDBFDEBF0E940E0340911020509111204D
:1004C00022E130E200E010E00417150754F42B5F3E
:1004D0003F4FF90135979081891739F00F5F1F4F12
:1004E000F3CF0417150709F454C09E012F5F3F4F47
:1004F0007901690125E0209FC001219F900D112401
:10050000DC01AD5EBF4D5D01D5018D919C91880FE1
:10051000991F96012E193F092817390750F40E9498
:100520000E038A30B1F18D30A1F1F60181936F0194
:10053000EBCF0E940E038A3011F08D3051F525E08B
:10054000209FC001219F900D11248C010E5E1F4D34
:10055000AE014F575F4FB701F801818192810E9430
:10056000A701892BB1F4D8011396ED91FC91149752
:10057000CE018F579F4F1995CF53DF4F8883C15CB2
:10058000D040AE014F535F4F61E070E08AE70E94B8
:100590001602CF53DF4FCDBFDEBFDF91CF911F914A
:1005A0000F91FF90EF90DF90CF90BF90AF900895A4
:1005B000E0E4F6E088E0818384E08283E0EAF8E02A
:1005C00083E085838BE086831782848180618483C6
:1005D0008481886084830895CF93DF931F921F9254
:1005E000CDB7DEB769837A8320E030E049815A8154
:1005F0002417350769F04091A10847FF06C02091F4
:10060000A008FC01208381E004C02F5F3F4FEECFA4
:1006100080E00F900F90DF91CF9108958091A10815
:1006200087FFFCCF8091A00808959091A10895FFC5
:10063000FCCF8093A0080895FC01608371834283FE
:1006400014861386168615860895FC016283089524
:10065000FC01958526859F5F937081E0921301C010
:1006600080E008951F93CF93DF93EC01162F0E9433
:100670002803882379F09D85FE01E90FF11D17837A
:100680009F5F93709D87E881F98193819C7F2A8188
:10069000922B9383DF91CF911F910895FC012385C5
:1006A000948581E0291301C080E00895FC018485D0
:1006B000DF01A80FB11D13968C9194859F5F9370F5
:1006C00094870895FC0183858F5F83702485A081C2
:1006D000B1819C91821749F02385DF01A20FB11DE2
:1006E00013969C93838781E0089580E00895CF93CB
:1006F000DF93FC0196858585A081B181981307C0A1
:1007000013968C9113978C7F13968C930AC08685D1
:10071000EF01C80FD11D8F818C9386858F5F837009
:100720008687DF91CF910895FC01848170FF02C01C
:10073000816001C08E7F848360830895FC01848181
:1007400080FF04C0808190E091600895808190E0F6
:1007500008951092520010925500809150008860C8
:10076000809350008091510083FFFCCF88ED84BFBF
:1007700083E08093400088E08093500080E680937F
:100780000106809305060895089564E470E20C94D0
:10079000C40564E470E20C94D3050895CF93DF930D
:1007A00000D01F92CDB7DEB7DC018C9189831496FF
:1007B0008C9114978A8318968C9118978B831C962A
:1007C0008C911C978C83862F8370E1E0F0E0EC0F16
:1007D000FD1FE80FF11D80818C9370E0FB013196C5
:1007E000E370FF2781E090E08C0F9D1FE80FF91F59
:1007F000808114968C931497FB013296E370FF2747
:1008000081E090E08C0F9D1FE80FF91F8081189602
:100810008C931897FB013396E370FF2781E090E0FB
:100820008C0F9D1FE80FF91F80811C968C932496D6
:10083000CDBFDEBFDF91CF9108952F923F924F92AF
:100840005F926F927F928F929F92AF92BF92CF9260
:10085000DF92EF92FF920F931F93CF93DF93CDB769
:10086000DEB76397CDBFDEBF7C015B01242EDB01C9
:100870008A8B9B8B2C0120E1420E511CFC018D9137
:10088000908189278193E415F505C9F7450130E189
:10089000830E911C81E0898B3E01A1E16A0E711CDF
:1008A00021E0221508F081C08E010F5F1F4FD80193
:1008B000C701FC012191CF01E22FF0E0EE51FE4F84
:1008C000E491ED93A615B705A1F761E0CE0102967C
:1008D0000E94CE0362E0CE0103960E94CE0363E045
:1008E000CE0104960E94CE036701D8016C91119647
:1008F0008C911197682712963C90129713968C91C1
:10090000382636264BE182E00E94D605F801908118
:1009100089278325D6018C936181828168274BE1E9
:1009200082E00E94D605F801918189278325D601AE
:1009300011968C936281838168274BE182E00E944B
:10094000D605F801928189278325D60112968C93CA
:100950006381808168274BE182E00E94D605F8011F
:10096000938189273826D60113963C920C5F1F4F3E
:10097000B4E0CB0ED11C0615170509F0B6CFF70170
:1009800080E090E0D401A80FB91F30812C9123277B
:100990002193019680319105A9F7E989EF5FE98BF1
:1009A0002A94F0E18F0E911C7BCFD701EC91F0E0FF
:1009B000EE51FE4FE491ED93A415B505B9F761E052
:1009C000C70101960E94CE0362E0C70102960E9411
:1009D000CE0363E0C70103960E94CE03A98930E1EC
:1009E000A39FC001112420E030E0FC01E20FF31FBF
:1009F000EA0DFB1DAA89BB895C91408145274D9377
:100A0000AA8BBB8B2F5F3F4F2031310571F7639667
:100A1000CDBFDEBFDF91CF911F910F91FF90EF907F
:100A2000DF90CF90BF90AF909F908F907F906F900E
:100A30005F904F903F902F9008958F929F92AF922A
:100A4000BF92CF92DF92EF92FF920F931F93CF93BB
:100A5000DF93EA016B01F5E0D694C794FA95E1F7CC
:100A6000EC2C860111279801295F3F4FF22EFF0CD5
:100A7000FF0CAB01A3E056954795AA95E1F7BC01A1
:100A8000CE010E940406DC2C2C2D30E02F1508F03E
:100A90006EC0622F70E0AB014150504C440F551FA7
:100AA000440F551F4C0F5D1FFA0180819181A28177
:100AB000B3812D1509F1F8E0EF1241C0E22FE77084
:100AC000E43009F03CC0E82FF0E0EE51FE4FE49135
:100AD0008E2FE92FF0E0EE51FE4FE4919E2FEA2F8A
:100AE000F0E0EE51FE4FE491AE2FEB2FF0E0EE512F
:100AF000FE4FE491BE2F23C0D22EDE0CC82EAB2EAB
:100B0000E92FF0E0EE51FE4FB490EA2FF0E0EE5105
:100B1000FE4FE4919E2FEA2DF0E0EE51FE4FE4915E
:100B2000AE2FEC2DF0E0EE51FE4FE491BE2FE32FFF
:100B3000F0E0E852FE4FE4918B2D8E273F5FFB01E2
:100B4000E01BF10BEE0FFF1FEE0FFF1FEC0FFD1F61
:100B500080809180A280B38088259925AA25BB2515
:100B6000FA0184839583A683B7832F5F8FCFDF91AC
:100B7000CF911F910F91FF90EF90DF90CF90BF909A
:100B8000AF909F908F900895AB0160E870E00C9457
:100B90001D05AB0160EC70E00C941D05AB0160E03D
:100BA00071E00C941D054AE00C941D04782F8827F1
:100BB000769531F008F48627660F08F46427F8CF9D
:100BC00008F4862708950E94A9030E94D80281E0B4
:100BD000809301060E940F0243EA51E060E170E059
:100BE0008BE60E94EC0146E951E060E170E080E7AD
:100BF0000E94EC0144E951E060E070E088E70E9467
:100C0000EC010E944A02FDCFFB01DC0102C0019011
:0E0C10000D9241505040D8F70895F894FFCF50
:100C1E003031323334353637383941424344454624
:00000001FF
